{
  "contractName": "LightNFT",
  "abi": [
    {
      "inputs": [],
      "stateMutability": "nonpayable",
      "type": "constructor"
    },
    {
      "inputs": [],
      "name": "NoMoneyToWithdraw",
      "type": "error"
    },
    {
      "inputs": [],
      "name": "NoOwner",
      "type": "error"
    },
    {
      "inputs": [
        {
          "internalType": "string",
          "name": "",
          "type": "string"
        }
      ],
      "name": "NotEnoughMoney",
      "type": "error"
    },
    {
      "inputs": [
        {
          "internalType": "address",
          "name": "",
          "type": "address"
        },
        {
          "internalType": "uint256",
          "name": "",
          "type": "uint256"
        }
      ],
      "name": "WithdrawCancelled",
      "type": "error"
    },
    {
      "anonymous": false,
      "inputs": [],
      "name": "ContractEnabled",
      "type": "event"
    },
    {
      "anonymous": false,
      "inputs": [],
      "name": "ContractPaused",
      "type": "event"
    },
    {
      "anonymous": false,
      "inputs": [
        {
          "indexed": false,
          "internalType": "address",
          "name": "owner",
          "type": "address"
        }
      ],
      "name": "ContractSetupCompleted",
      "type": "event"
    },
    {
      "anonymous": false,
      "inputs": [
        {
          "indexed": false,
          "internalType": "string",
          "name": "token",
          "type": "string"
        }
      ],
      "name": "DisabledToken",
      "type": "event"
    },
    {
      "anonymous": false,
      "inputs": [
        {
          "indexed": false,
          "internalType": "string",
          "name": "token",
          "type": "string"
        }
      ],
      "name": "EnabledToken",
      "type": "event"
    },
    {
      "anonymous": false,
      "inputs": [
        {
          "indexed": false,
          "internalType": "address",
          "name": "",
          "type": "address"
        },
        {
          "indexed": false,
          "internalType": "uint256",
          "name": "",
          "type": "uint256"
        }
      ],
      "name": "FoundsReceived",
      "type": "event"
    },
    {
      "anonymous": false,
      "inputs": [
        {
          "indexed": false,
          "internalType": "address",
          "name": "owner",
          "type": "address"
        },
        {
          "indexed": false,
          "internalType": "string",
          "name": "token",
          "type": "string"
        }
      ],
      "name": "Minted",
      "type": "event"
    },
    {
      "anonymous": false,
      "inputs": [
        {
          "indexed": false,
          "internalType": "address",
          "name": "buyer",
          "type": "address"
        },
        {
          "indexed": false,
          "internalType": "string",
          "name": "token",
          "type": "string"
        },
        {
          "indexed": false,
          "internalType": "uint256",
          "name": "amount",
          "type": "uint256"
        }
      ],
      "name": "Sold",
      "type": "event"
    },
    {
      "anonymous": false,
      "inputs": [
        {
          "indexed": false,
          "internalType": "address",
          "name": "buyer",
          "type": "address"
        },
        {
          "indexed": false,
          "internalType": "string",
          "name": "token",
          "type": "string"
        },
        {
          "indexed": false,
          "internalType": "uint256",
          "name": "amount",
          "type": "uint256"
        }
      ],
      "name": "SoldOne",
      "type": "event"
    },
    {
      "anonymous": false,
      "inputs": [
        {
          "indexed": false,
          "internalType": "string",
          "name": "token",
          "type": "string"
        },
        {
          "indexed": false,
          "internalType": "uint256",
          "name": "percentatge",
          "type": "uint256"
        },
        {
          "indexed": false,
          "internalType": "address",
          "name": "from",
          "type": "address"
        },
        {
          "indexed": false,
          "internalType": "uint256",
          "name": "newFromPercentatge",
          "type": "uint256"
        },
        {
          "indexed": false,
          "internalType": "address",
          "name": "to",
          "type": "address"
        },
        {
          "indexed": false,
          "internalType": "uint256",
          "name": "newToPercentate",
          "type": "uint256"
        }
      ],
      "name": "Transfered",
      "type": "event"
    },
    {
      "anonymous": false,
      "inputs": [
        {
          "indexed": false,
          "internalType": "address",
          "name": "seller",
          "type": "address"
        },
        {
          "indexed": false,
          "internalType": "uint256",
          "name": "amount",
          "type": "uint256"
        }
      ],
      "name": "Withdrawn",
      "type": "event"
    },
    {
      "anonymous": false,
      "inputs": [
        {
          "indexed": false,
          "internalType": "address",
          "name": "",
          "type": "address"
        },
        {
          "indexed": false,
          "internalType": "uint256",
          "name": "",
          "type": "uint256"
        }
      ],
      "name": "WithdrawnRemainFail",
      "type": "event"
    },
    {
      "inputs": [],
      "name": "contractPaused",
      "outputs": [
        {
          "internalType": "bool",
          "name": "",
          "type": "bool"
        }
      ],
      "stateMutability": "view",
      "type": "function",
      "constant": true
    },
    {
      "inputs": [],
      "name": "circuitBreaker",
      "outputs": [],
      "stateMutability": "nonpayable",
      "type": "function"
    },
    {
      "inputs": [],
      "name": "contractIsPaused",
      "outputs": [
        {
          "internalType": "bool",
          "name": "",
          "type": "bool"
        }
      ],
      "stateMutability": "view",
      "type": "function",
      "constant": true
    },
    {
      "inputs": [
        {
          "internalType": "address",
          "name": "to",
          "type": "address"
        },
        {
          "internalType": "string",
          "name": "token",
          "type": "string"
        },
        {
          "internalType": "string",
          "name": "hashFile",
          "type": "string"
        },
        {
          "internalType": "uint256",
          "name": "price",
          "type": "uint256"
        }
      ],
      "name": "mint",
      "outputs": [
        {
          "internalType": "bool",
          "name": "",
          "type": "bool"
        }
      ],
      "stateMutability": "nonpayable",
      "type": "function"
    },
    {
      "inputs": [
        {
          "internalType": "string",
          "name": "token",
          "type": "string"
        }
      ],
      "name": "getContentByToken",
      "outputs": [
        {
          "internalType": "string",
          "name": "hashFile",
          "type": "string"
        },
        {
          "internalType": "string",
          "name": "uri",
          "type": "string"
        },
        {
          "internalType": "uint256",
          "name": "price",
          "type": "uint256"
        },
        {
          "internalType": "string",
          "name": "state",
          "type": "string"
        }
      ],
      "stateMutability": "view",
      "type": "function",
      "constant": true
    },
    {
      "inputs": [
        {
          "internalType": "string",
          "name": "token",
          "type": "string"
        }
      ],
      "name": "getOnwersByToken",
      "outputs": [
        {
          "components": [
            {
              "internalType": "address",
              "name": "owner",
              "type": "address"
            },
            {
              "internalType": "uint256",
              "name": "percentatge",
              "type": "uint256"
            }
          ],
          "internalType": "struct LightNFT.Ownership[]",
          "name": "",
          "type": "tuple[]"
        }
      ],
      "stateMutability": "view",
      "type": "function",
      "constant": true
    },
    {
      "inputs": [
        {
          "internalType": "string",
          "name": "token",
          "type": "string"
        }
      ],
      "name": "getPendingWithdrawsByToken",
      "outputs": [
        {
          "components": [
            {
              "internalType": "address",
              "name": "owner",
              "type": "address"
            },
            {
              "internalType": "uint256",
              "name": "amount",
              "type": "uint256"
            },
            {
              "internalType": "uint256",
              "name": "percentatge",
              "type": "uint256"
            }
          ],
          "internalType": "struct LightNFT.Withdrawship[]",
          "name": "",
          "type": "tuple[]"
        }
      ],
      "stateMutability": "view",
      "type": "function",
      "constant": true
    },
    {
      "inputs": [
        {
          "internalType": "string",
          "name": "token",
          "type": "string"
        }
      ],
      "name": "getWithdrawsForMeByToken",
      "outputs": [
        {
          "internalType": "uint256",
          "name": "",
          "type": "uint256"
        }
      ],
      "stateMutability": "view",
      "type": "function",
      "constant": true
    },
    {
      "inputs": [],
      "name": "getTotalMinted",
      "outputs": [
        {
          "internalType": "uint256",
          "name": "",
          "type": "uint256"
        }
      ],
      "stateMutability": "view",
      "type": "function",
      "constant": true
    },
    {
      "inputs": [
        {
          "internalType": "address",
          "name": "from",
          "type": "address"
        },
        {
          "internalType": "string",
          "name": "token",
          "type": "string"
        },
        {
          "internalType": "address",
          "name": "to",
          "type": "address"
        },
        {
          "internalType": "uint256",
          "name": "percentatge",
          "type": "uint256"
        }
      ],
      "name": "transferOwnership",
      "outputs": [
        {
          "internalType": "bool",
          "name": "",
          "type": "bool"
        }
      ],
      "stateMutability": "nonpayable",
      "type": "function"
    },
    {
      "inputs": [],
      "name": "receiveFunds",
      "outputs": [],
      "stateMutability": "payable",
      "type": "function",
      "payable": true
    },
    {
      "inputs": [],
      "name": "getBalance",
      "outputs": [
        {
          "internalType": "uint256",
          "name": "",
          "type": "uint256"
        }
      ],
      "stateMutability": "view",
      "type": "function",
      "constant": true
    },
    {
      "inputs": [
        {
          "internalType": "string",
          "name": "token",
          "type": "string"
        },
        {
          "internalType": "uint256",
          "name": "newPrice",
          "type": "uint256"
        }
      ],
      "name": "buy",
      "outputs": [],
      "stateMutability": "payable",
      "type": "function",
      "payable": true
    },
    {
      "inputs": [
        {
          "internalType": "string",
          "name": "token",
          "type": "string"
        }
      ],
      "name": "withdraw",
      "outputs": [],
      "stateMutability": "nonpayable",
      "type": "function"
    },
    {
      "inputs": [
        {
          "internalType": "string",
          "name": "token",
          "type": "string"
        }
      ],
      "name": "disableByToken",
      "outputs": [],
      "stateMutability": "nonpayable",
      "type": "function"
    },
    {
      "inputs": [
        {
          "internalType": "string",
          "name": "token",
          "type": "string"
        }
      ],
      "name": "enableByToken",
      "outputs": [],
      "stateMutability": "nonpayable",
      "type": "function"
    },
    {
      "inputs": [
        {
          "internalType": "uint256",
          "name": "amount",
          "type": "uint256"
        }
      ],
      "name": "withdrawOwner",
      "outputs": [],
      "stateMutability": "nonpayable",
      "type": "function"
    },
    {
      "inputs": [
        {
          "internalType": "string",
          "name": "uri",
          "type": "string"
        }
      ],
      "name": "setUrlBase",
      "outputs": [],
      "stateMutability": "nonpayable",
      "type": "function"
    }
  ],
  "bytecode": "0x60806040523480156200001157600080fd5b50600280546001600160a01b0319163317905560006004819055805460ff191690556040805180820190915260148082527f68747470733a2f2f7472756c792e63616d65726100000000000000000000000060209092019182526200007991600191620000c0565b506002546040516001600160a01b0390911681527f32715609885eba1abe4f0027a3acc91816bd1eb8070e8fd3a58b75d9588a62549060200160405180910390a1620001a3565b828054620000ce9062000166565b90600052602060002090601f016020900481019282620000f257600085556200013d565b82601f106200010d57805160ff19168380011785556200013d565b828001600101855582156200013d579182015b828111156200013d57825182559160200191906001019062000120565b506200014b9291506200014f565b5090565b5b808211156200014b576000815560010162000150565b600181811c908216806200017b57607f821691505b602082108114156200019d57634e487b7160e01b600052602260045260246000fd5b50919050565b612a8c80620001b36000396000f3fe6080604052600436106101085760003560e01c80636ef98b211161009557806393de5b471161006457806393de5b47146102a3578063951be585146102c357806398021510146102e35780639b8d394414610310578063d5815f861461032857600080fd5b80636ef98b21146102095780637aca6e5914610229578063853d42ad146102595780638a67456a1461028957600080fd5b806312065fe0116100dc57806312065fe01461017257806316efd9411461018757806321a861171461019c57806331fb67c2146101c957806345393c95146101e957600080fd5b80625c33e11461010d57806303970b94146101175780630ca1c5c9146101375780630ca5c5041461015f575b600080fd5b610115610348565b005b34801561012357600080fd5b50610115610132366004612467565b610382565b34801561014357600080fd5b5061014c610479565b6040519081526020015b60405180910390f35b61011561016d3660046124a4565b6104ad565b34801561017e57600080fd5b5061014c6109ea565b34801561019357600080fd5b50610115610a1c565b3480156101a857600080fd5b506101bc6101b7366004612467565b610ab9565b60405161015691906124e9565b3480156101d557600080fd5b506101156101e4366004612467565b610d24565b3480156101f557600080fd5b50610115610204366004612467565b610fe6565b34801561021557600080fd5b5061011561022436600461254b565b6110c9565b34801561023557600080fd5b50610249610244366004612467565b6111cc565b60405161015694939291906125bc565b34801561026557600080fd5b5061027961027436600461261d565b6113d9565b6040519015158152602001610156565b34801561029557600080fd5b506000546102799060ff1681565b3480156102af57600080fd5b5061014c6102be366004612467565b611888565b3480156102cf57600080fd5b506102796102de366004612699565b611934565b3480156102ef57600080fd5b506103036102fe366004612467565b611f65565b60405161015691906126ff565b34801561031c57600080fd5b5060005460ff16610279565b34801561033457600080fd5b50610115610343366004612467565b612232565b604080513381523460208201527f4487cd1d0a0bc84ed5a4791977419355e717d500c2eff3d51b3a212318111901910160405180910390a1565b6002546001600160a01b031633146103b55760405162461bcd60e51b81526004016103ac9061274a565b60405180910390fd5b6003816040516103c59190612777565b9081526040519081900360200190206004015460ff610100909104166103fd5760405162461bcd60e51b81526004016103ac90612793565b600060038260405161040f9190612777565b908152604051908190036020019020600401805460ff19166001838181111561043a5761043a6127c0565b02179055507f21c5289e60ea87daa00ded990e7d11f4dab08a9769f1c8de16392940c325b9378160405161046e91906127d6565b60405180910390a150565b6002546000906001600160a01b031633146104a65760405162461bcd60e51b81526004016103ac9061274a565b5060045490565b60005460ff16156104bd57600080fd5b81516104db5760405162461bcd60e51b81526004016103ac906127f0565b6003826040516104eb9190612777565b9081526040519081900360200190206004015460ff610100909104166105235760405162461bcd60e51b81526004016103ac90612793565b60006003836040516105359190612777565b9081526040519081900360200190206004015460ff16600181111561055c5761055c6127c0565b146105a95760405162461bcd60e51b815260206004820152601c60248201527f746f6b656e20737461746520646f65736e277420616c6c6f772069740000000060448201526064016103ac565b6003826040516105b99190612777565b90815260408051602092819003830190203360009081529252902054156106225760405162461bcd60e51b815260206004820152601760248201527f796f7527726520616c726561647920616e206f776e657200000000000000000060448201526064016103ac565b60405133903490600390610637908690612777565b908152602001604051809103902060030154811015610699576040516387f51f5d60e01b815260206004820152601b60248201527f627579657220686173206e6f7420656e6f75676874206d6f6e6579000000000060448201526064016103ac565b6000806003866040516106ac9190612777565b90815260405190819003602001902060010154905060005b818110156108045760006003886040516106de9190612777565b908152602001604051809103902060010182815481106107005761070061281c565b60009182526020822001546040516001600160a01b039091169250600390610729908b90612777565b90815260408051602092819003830190206001600160a01b03851660009081529252902054905080156107ef5760008161076460648961285e565b61076e9190612872565b90508060038b6040516107819190612777565b9081526040805191829003602090810183206001600160a01b03881660009081529152908120600101929092556003906107bc908d90612777565b90815260408051602092819003830190206001600160a01b038716600090815292529020556107eb8187612891565b9550505b505080806107fc906128a9565b9150506106c4565b50600061081183856128c4565b905080156108bd576002546040516000916001600160a01b03169083908381818185875af1925050503d8060008114610866576040519150601f19603f3d011682016040523d82523d6000602084013e61086b565b606091505b50509050806108bb57600254604080516001600160a01b039092168252602082018490527fb3f7127060b731f15c183bb1b2e6d532cf712c428f725e4ad6275bf5e7f4f041910160405180910390a15b505b60646003886040516108cf9190612777565b9081526040805191829003602090810183206001600160a01b038a166000908152915290812092909255600390610907908a90612777565b9081526040805191829003602090810183206001600160a01b038a16600090815291522060010191909155600390610940908990612777565b9081526040516020918190038201812060019081018054918201815560009081529290922090910180546001600160a01b0319166001600160a01b0388161790558690600390610991908a90612777565b9081526020016040518091039020600301819055507fed2414142d59d04ed91abd73c984728a72e7835021366ac82c7c86e84019a96f8588866040516109d9939291906128db565b60405180910390a150505050505050565b6002546000906001600160a01b03163314610a175760405162461bcd60e51b81526004016103ac9061274a565b504790565b6002546001600160a01b03163314610a465760405162461bcd60e51b81526004016103ac9061274a565b60005460ff16610a86576000805460ff191660011781556040517fab35696f06e428ebc5ceba8cd17f8fed287baf43440206d1943af1ee53e6d2679190a1565b6000805460ff191681556040517f961479333f7baab3eea2ead54f4113612e06058e0f3cdd932672aa14bcd831c29190a1565b6002546060906001600160a01b03163314610ae65760405162461bcd60e51b81526004016103ac9061274a565b8151610b045760405162461bcd60e51b81526004016103ac906127f0565b600382604051610b149190612777565b9081526040519081900360200190206004015460ff61010090910416610b4c5760405162461bcd60e51b81526004016103ac90612793565b6000600383604051610b5e9190612777565b90815260405190819003602001902060010154905060008167ffffffffffffffff811115610b8e57610b8e6123c4565b604051908082528060200260200182016040528015610bec57816020015b610bd9604051806060016040528060006001600160a01b0316815260200160008152602001600081525090565b815260200190600190039081610bac5790505b50905060005b82811015610d1a576000600386604051610c0c9190612777565b90815260200160405180910390206001018281548110610c2e57610c2e61281c565b60009182526020822001546040516001600160a01b039091169250600390610c57908990612777565b90815260200160405180910390206000016000836001600160a01b03166001600160a01b03168152602001908152602001600020905081848481518110610ca057610ca061281c565b60209081029190910101516001600160a01b03909116905280548451859085908110610cce57610cce61281c565b602002602001015160400181815250508060010154848481518110610cf557610cf561281c565b6020026020010151602001818152505050508080610d12906128a9565b915050610bf2565b509150505b919050565b60005460ff1615610d3457600080fd5b8051610d525760405162461bcd60e51b81526004016103ac906127f0565b600381604051610d629190612777565b9081526040519081900360200190206004015460ff61010090910416610d9a5760405162461bcd60e51b81526004016103ac90612793565b6000600382604051610dac9190612777565b9081526040519081900360200190206004015460ff166001811115610dd357610dd36127c0565b14610e205760405162461bcd60e51b815260206004820152601c60248201527f746f6b656e20737461746520646f65736e277420616c6c6f772069740000000060448201526064016103ac565b6040513390600390610e33908490612777565b90815260408051602092819003830190206001600160a01b03841660009081529252902060010154610e7857604051638a93795760e01b815260040160405180910390fd5b6000600383604051610e8a9190612777565b90815260408051602092819003830181206001600160a01b03861660009081529352908220600101549250600390610ec3908690612777565b90815260408051602092819003830181206001600160a01b038716600081815291909452918220600101939093559183908381818185875af1925050503d8060008114610f2c576040519150601f19603f3d011682016040523d82523d6000602084013e610f31565b606091505b505090508015610f8257604080516001600160a01b0385168152602081018490527f7084f5476618d8e60b11ef0d7d3f06914655adb8793e28ff7f018d4c76d505d5910160405180910390a1610fe0565b81600385604051610f939190612777565b90815260408051602092819003830181206001600160a01b038816600081815291909452919091206001019290925563367911c960e11b82526004820152602481018390526044016103ac565b50505050565b6002546001600160a01b031633146110105760405162461bcd60e51b81526004016103ac9061274a565b6003816040516110209190612777565b9081526040519081900360200190206004015460ff610100909104166110585760405162461bcd60e51b81526004016103ac90612793565b600160038260405161106a9190612777565b908152604051908190036020019020600401805460ff191660018381811115611095576110956127c0565b02179055507fae08887e756f652bab5a93f96c76f63d142b80f0a0bdb180f3e7f32ad15aadfa8160405161046e91906127d6565b6002546001600160a01b031633146110f35760405162461bcd60e51b81526004016103ac9061274a565b6002546040516000916001600160a01b03169083908381818185875af1925050503d8060008114611140576040519150601f19603f3d011682016040523d82523d6000602084013e611145565b606091505b50509050801561119957600254604080516001600160a01b039092168252602082018490527f7084f5476618d8e60b11ef0d7d3f06914655adb8793e28ff7f018d4c76d505d5910160405180910390a15050565b60025460405163367911c960e11b81526001600160a01b039091166004820152602481018390526044016103ac565b5050565b600080546060918291829060ff16156111e457600080fd5b84516112025760405162461bcd60e51b81526004016103ac906127f0565b6003856040516112129190612777565b9081526040519081900360200190206004015460ff6101009091041661124a5760405162461bcd60e51b81526004016103ac90612793565b600060038660405161125c9190612777565b90815260200160405180910390209050600061129c6003886040516112819190612777565b9081526040519081900360200190206004015460ff1661226f565b905081600201611336600180546112b29061290f565b80601f01602080910402602001604051908101604052809291908181526020018280546112de9061290f565b801561132b5780601f106113005761010080835404028352916020019161132b565b820191906000526020600020905b81548152906001019060200180831161130e57829003601f168201915b5050505050896122ff565b8360030154838380546113489061290f565b80601f01602080910402602001604051908101604052809291908181526020018280546113749061290f565b80156113c15780601f10611396576101008083540402835291602001916113c1565b820191906000526020600020905b8154815290600101906020018083116113a457829003601f168201915b50505050509350955095509550955050509193509193565b6002546000906001600160a01b031633146114065760405162461bcd60e51b81526004016103ac9061274a565b6001600160a01b03851661145c5760405162461bcd60e51b815260206004820152601a60248201527f4e6f206e756c6c206164647265737320697320616c6c6f77656400000000000060448201526064016103ac565b835161147a5760405162461bcd60e51b81526004016103ac906127f0565b82516114c05760405162461bcd60e51b81526020600482015260156024820152746861736846696c65206973206d616e6461746f727960581b60448201526064016103ac565b60648210156115115760405162461bcd60e51b815260206004820152601760248201527f7072696365206d757374206265203e3d3130302077656900000000000000000060448201526064016103ac565b61151c60028361294a565b1561155e5760405162461bcd60e51b8152602060048201526012602482015271383934b1b29036bab9ba1031329032bb32b760711b60448201526064016103ac565b60038460405161156e9190612777565b9081526040519081900360200190206004015460ff61010090910416156115c65760405162461bcd60e51b815260206004820152600c60248201526b746f6b656e20696e2075736560a01b60448201526064016103ac565b601e6003856040516115d89190612777565b9081526040805191829003602090810183206002546001600160a01b03166000908152915290812092909255600390611612908790612777565b9081526040805191829003602090810183206002546001600160a01b031660009081529152206001019190915560039061164d908690612777565b90815260405190819003602090810182206002546001918201805492830181556000908152929092200180546001600160a01b0319166001600160a01b039092169190911790556046906003906116a5908790612777565b9081526040805191829003602090810183206001600160a01b038a1660009081529152908120929092556003906116dd908790612777565b9081526040805191829003602090810183206001600160a01b038a16600090815291522060010191909155600390611716908690612777565b9081526040516020918190038201812060019081018054918201815560009081529290922090910180546001600160a01b0319166001600160a01b0388161790558390600390611767908790612777565b9081526020016040518091039020600201908051906020019061178b92919061232b565b508160038560405161179d9190612777565b90815260200160405180910390206003018190555060006003856040516117c49190612777565b908152604051908190036020019020600401805460ff1916600183818111156117ef576117ef6127c0565b021790555060016003856040516118069190612777565b908152604051908190036020019020600490810180549215156101000261ff001990931692909217909155805490600061183f836128a9565b91905055507f0c1b180fbb60448c5491c5ddc7c3a923854214b9ff70f90a7821333338971f92858560405161187592919061295e565b60405180910390a1506001949350505050565b6000805460ff161561189957600080fd5b81516118b75760405162461bcd60e51b81526004016103ac906127f0565b6003826040516118c79190612777565b9081526040519081900360200190206004015460ff610100909104166118ff5760405162461bcd60e51b81526004016103ac90612793565b60038260405161190f9190612777565b9081526040805160209281900383019020336000908152925290206001015492915050565b6002546000906001600160a01b031633146119615760405162461bcd60e51b81526004016103ac9061274a565b6001600160a01b0383166119b75760405162461bcd60e51b815260206004820152601d60248201527f4e6f206e756c6c20746f206164647265737320697320616c6c6f77656400000060448201526064016103ac565b6001600160a01b038516611a0d5760405162461bcd60e51b815260206004820152601f60248201527f4e6f206e756c6c2066726f6d206164647265737320697320616c6c6f7765640060448201526064016103ac565b826001600160a01b0316856001600160a01b03161415611a8e5760405162461bcd60e51b815260206004820152603660248201527f736f757263652061646472657373206d757374206265206469666665726e7420604482015275746f2064657374696e6174696f6e206164647265737360501b60648201526084016103ac565b8351611aac5760405162461bcd60e51b81526004016103ac906127f0565b6064821115611acd5760405162461bcd60e51b81526004016103ac90612982565b60008211611aed5760405162461bcd60e51b81526004016103ac90612982565b600384604051611afd9190612777565b9081526040519081900360200190206004015460ff61010090910416611b355760405162461bcd60e51b81526004016103ac90612793565b600384604051611b459190612777565b90815260408051602092819003830190206001600160a01b03881660009081529252902054611bc45760405162461bcd60e51b815260206004820152602560248201527f66726f6d2061646472657373206d75737420626520616d6f6e6720746865206f604482015264776e65727360d81b60648201526084016103ac565b81600385604051611bd59190612777565b90815260408051602092819003830190206001600160a01b038916600090815292529020541015611c565760405162461bcd60e51b815260206004820152602560248201527f66726f6d206164647265737320686173206e6f20656e6f75676874206f776e65604482015264072736869760dc1b60648201526084016103ac565b606482600386604051611c699190612777565b90815260408051602092819003830190206001600160a01b03881660009081529252902054611c989190612891565b1115611d1a5760405162461bcd60e51b8152602060048201526044602482018190527f64657374696e6174696f6e206164647265737320776f756c642068617665206d908201527f6f7265207468616e2031303025206f776e6572736869702c20696d706f737369606482015263626c652160e01b608482015260a4016103ac565b81600385604051611d2b9190612777565b90815260408051602092819003830190206001600160a01b0389166000908152925281208054909190611d5f9084906128c4565b9250508190555081600385604051611d779190612777565b90815260408051602092819003830190206001600160a01b0387166000908152925281208054909190611dab908490612891565b925050819055506000600385604051611dc49190612777565b9081526040519081900360200190206001015490506000805b8281108015611dea575081155b15611e5d57856001600160a01b0316600388604051611e099190612777565b90815260200160405180910390206001018281548110611e2b57611e2b61281c565b6000918252602090912001546001600160a01b03161415611e4b57600191505b80611e55816128a9565b915050611ddd565b5080611eb357600386604051611e739190612777565b908152604051602091819003820190206001908101805491820181556000908152919091200180546001600160a01b0319166001600160a01b0387161790555b7fa110a9d0ef0ec7a3c6d24eb3c032052cec5063443597570139e6dd64247a367e86858960038a604051611ee79190612777565b9081526040805191829003602090810183206001600160a01b038f16600090815291522054908a90600390611f1d908e90612777565b9081526040805191829003602090810183206001600160a01b038f16600090815291522054611f509695949392916129d6565b60405180910390a15060019695505050505050565b60005460609060ff1615611f7857600080fd5b8151611f965760405162461bcd60e51b81526004016103ac906127f0565b600382604051611fa69190612777565b9081526040519081900360200190206004015460ff61010090910416611fde5760405162461bcd60e51b81526004016103ac90612793565b6000600383604051611ff09190612777565b9081526040519081900360200190206001015490506000805b828110156120ba5760006003866040516120239190612777565b908152602001604051809103902060010182815481106120455761204561281c565b60009182526020822001546040516001600160a01b03909116925060039061206e908990612777565b90815260408051602092819003830190206001600160a01b0385166000908152925290205411156120a757826120a3816128a9565b9350505b50806120b2816128a9565b915050612009565b5060008167ffffffffffffffff8111156120d6576120d66123c4565b60405190808252806020026020018201604052801561211b57816020015b60408051808201909152600080825260208201528152602001906001900390816120f45790505b5090506000805b8481101561222757600060038860405161213c9190612777565b9081526020016040518091039020600101828154811061215e5761215e61281c565b60009182526020822001546040516001600160a01b039091169250600390612187908b90612777565b90815260408051602092819003830190206001600160a01b03851660009081529252902080549091501561221257818585815181106121c8576121c861281c565b60209081029190910101516001600160a01b039091169052805485518690869081106121f6576121f661281c565b60209081029190910181015101528361220e816128a9565b9450505b5050808061221f906128a9565b915050612122565b509095945050505050565b6002546001600160a01b0316331461225c5760405162461bcd60e51b81526004016103ac9061274a565b80516111c890600190602084019061232b565b60606000826001811115612285576122856127c0565b14156122ad57505060408051808201909152600681526541637469766560d01b602082015290565b60018260018111156122c1576122c16127c0565b14156122eb575050604080518082019091526008815267496e61637469766560c01b602082015290565b505060408051602081019091526000815290565b60608282604051602001612314929190612a1a565b604051602081830303815290604052905092915050565b8280546123379061290f565b90600052602060002090601f016020900481019282612359576000855561239f565b82601f1061237257805160ff191683800117855561239f565b8280016001018555821561239f579182015b8281111561239f578251825591602001919060010190612384565b506123ab9291506123af565b5090565b5b808211156123ab57600081556001016123b0565b634e487b7160e01b600052604160045260246000fd5b600082601f8301126123eb57600080fd5b813567ffffffffffffffff80821115612406576124066123c4565b604051601f8301601f19908116603f0116810190828211818310171561242e5761242e6123c4565b8160405283815286602085880101111561244757600080fd5b836020870160208301376000602085830101528094505050505092915050565b60006020828403121561247957600080fd5b813567ffffffffffffffff81111561249057600080fd5b61249c848285016123da565b949350505050565b600080604083850312156124b757600080fd5b823567ffffffffffffffff8111156124ce57600080fd5b6124da858286016123da565b95602094909401359450505050565b602080825282518282018190526000919060409081850190868401855b8281101561253e57815180516001600160a01b0316855286810151878601528501518585015260609093019290850190600101612506565b5091979650505050505050565b60006020828403121561255d57600080fd5b5035919050565b60005b8381101561257f578181015183820152602001612567565b83811115610fe05750506000910152565b600081518084526125a8816020860160208601612564565b601f01601f19169290920160200192915050565b6080815260006125cf6080830187612590565b82810360208401526125e18187612590565b905084604084015282810360608401526125fb8185612590565b979650505050505050565b80356001600160a01b0381168114610d1f57600080fd5b6000806000806080858703121561263357600080fd5b61263c85612606565b9350602085013567ffffffffffffffff8082111561265957600080fd5b612665888389016123da565b9450604087013591508082111561267b57600080fd5b50612688878288016123da565b949793965093946060013593505050565b600080600080608085870312156126af57600080fd5b6126b885612606565b9350602085013567ffffffffffffffff8111156126d457600080fd5b6126e0878288016123da565b9350506126ef60408601612606565b9396929550929360600135925050565b602080825282518282018190526000919060409081850190868401855b8281101561253e57815180516001600160a01b0316855286015186850152928401929085019060010161271c565b60208082526013908201527221b0b63632b91034b9903737ba1037bbb732b960691b604082015260600190565b60008251612789818460208701612564565b9190910192915050565b6020808252601390820152721d1bdad95b88191bd95cdb89dd08195e1a5cdd606a1b604082015260600190565b634e487b7160e01b600052602160045260246000fd5b6020815260006127e96020830184612590565b9392505050565b602080825260129082015271746f6b656e206973206d616e6461746f727960701b604082015260600190565b634e487b7160e01b600052603260045260246000fd5b634e487b7160e01b600052601260045260246000fd5b634e487b7160e01b600052601160045260246000fd5b60008261286d5761286d612832565b500490565b600081600019048311821515161561288c5761288c612848565b500290565b600082198211156128a4576128a4612848565b500190565b60006000198214156128bd576128bd612848565b5060010190565b6000828210156128d6576128d6612848565b500390565b6001600160a01b03841681526060602082018190526000906128ff90830185612590565b9050826040830152949350505050565b600181811c9082168061292357607f821691505b6020821081141561294457634e487b7160e01b600052602260045260246000fd5b50919050565b60008261295957612959612832565b500690565b6001600160a01b038316815260406020820181905260009061249c90830184612590565b60208082526034908201527f70657263656e74617467652069736e277420636f72726563742c206d7573742060408201527306265206265747765656e203120616e64203130360641b606082015260800190565b60c0815260006129e960c0830189612590565b6020830197909752506001600160a01b03948516604082015260608101939093529216608082015260a00152919050565b60008351612a2c818460208801612564565b602f60f81b9083019081528351612a4a816001840160208801612564565b0160010194935050505056fea26469706673582212202d16a4110c20917630c4e035c7b8f09364ce3d30766dd5c25acd6f17a668a29a64736f6c634300080b0033",
  "immutableReferences": {},
  "source": "// SPDX-License-Identifier: GPL-3.0\npragma solidity >=0.8.8 <0.9.0;\n\n//import \"./IterableMapping.sol\";\n\ncontract LightNFT {\n    //using IterableMapping for itmap;\n\n    bool public contractPaused;\n    string private urlBase;\n    address private constant ADDRESS_NULL = address(0x0);\n    address private _contractOwner;\n\n    enum nNftState {\n        Active,\n        Inactive\n    }\n\n    struct nNftOwner {\n        //address owner;\n        uint256 percentatge;\n        uint256 amountToWithdraw;\n    }\n\n    struct nNft {\n        //  itmap owners; //mapping between address and nfts\n        mapping(address => nNftOwner) owners;\n        address[] _owners;\n        string hashFile;\n        //  string uriFile;\n        //  string hashMetaFile;\n        //  string uriMetaFile;\n        uint256 price;\n        // string uriLicense;\n        // string copyright;\n        nNftState state;\n        bool exist;\n    }\n\n    mapping(string => nNft) private _UsersWithNfts;\n\n    uint256 private _counter;\n\n    event ContractSetupCompleted(address owner);\n    event Minted(address owner, string token);\n    event Transfered(\n        string token,\n        uint256 percentatge,\n        address from,\n        uint256 newFromPercentatge,\n        address to,\n        uint256 newToPercentate\n    );\n    event Sold(address buyer, string token, uint256 amount);\n\n    event SoldOne(address buyer, string token, uint256 amount);\n    event DisabledToken(string token);\n    event EnabledToken(string token);\n    event Withdrawn(address seller, uint256 amount);\n    event WithdrawnRemainFail(address, uint256);\n    event FoundsReceived(address, uint256);\n    event ContractPaused();\n    event ContractEnabled();\n    /// the funds send don't cover the price\n    error NotEnoughMoney(string);\n    // // The function cannot be called at the current state.\n    //error InvalidState();\n    /// Not an owner of a token\n    error NoOwner();\n    /// No funds to be withdrawn\n    error NoMoneyToWithdraw();\n    /// Error getting funds\n    error WithdrawCancelled(address, uint256);\n\n    /*\n    mapping(address => uint256) private userLastAction;\n    uint256 throttleTime = 1; // block - 30 seconds;\n\n\n    modifier throttling() {\n        if (userLastAction[msg.sender] == 0x0) {\n            userLastAction[msg.sender] = 0;\n        }\n        require(block.number - throttleTime >= userLastAction[msg.sender], \"you're calling super fast\");\n        userLastAction[msg.sender] = block.number;\n        _;\n    }\n*/\n\n    constructor() {\n        //require(_contractOwner != address(0), \"Master address cannot be a zero address\");\n\n        _contractOwner = msg.sender; // 'msg.sender' is sender of current call, contract deployer for a constructor\n        _counter = 0;\n        contractPaused = false;\n        urlBase = \"https://truly.camera\";\n\n        emit ContractSetupCompleted(_contractOwner);\n    }\n\n    modifier isOwner() {\n        require(msg.sender == address(_contractOwner), \"Caller is not owner\");\n        _;\n    }\n\n    function circuitBreaker() public isOwner {\n        // onlyOwner can call\n        if (contractPaused == false) {\n            contractPaused = true;\n            emit ContractPaused();\n        } else {\n            contractPaused = false;\n            emit ContractEnabled();\n        }\n    }\n\n    function contractIsPaused() public view returns(bool){\n        return contractPaused;\n    }\n\n    modifier checkIfPaused() {\n        require(contractPaused == false);\n        _;\n    }\n\n    function mint(\n        address to,\n        string memory token,\n        //string memory uriFile,\n        string memory hashFile,\n        //string memory uriMetaInfo,\n        //string memory hashMetaInfo,\n        uint256 price\n    )\n        public\n        // string memory uriLicense,\n        // string memory copyright\n        isOwner\n        returns (bool)\n    {\n        require(to != ADDRESS_NULL, \"No null address is allowed\");\n        require(bytes(token).length != 0, \"token is mandatory\");\n        //require(bytes(uriFile).length != 0, \"uriFile is mandatory\");\n        require(bytes(hashFile).length != 0, \"hashFile is mandatory\");\n        //require(bytes(uriMetaInfo).length != 0, \"uriMetaInfo is mandatory\");\n        //require(bytes(hashMetaInfo).length != 0, \"hashMetaInfo is mandatory\");\n        //require(bytes(uriLicense).length != 0, \"uriLicense is mandatory\");\n        //require(bytes(copyright).length != 0, \"copyright is mandatory\");\n        require(price >= 100, \"price must be >=100 wei\");\n        require(price % 2 == 0, \"price must be even\");\n        require(_UsersWithNfts[token].exist == false, \"token in use\");\n\n        _UsersWithNfts[token].owners[_contractOwner].percentatge = 30;\n        _UsersWithNfts[token].owners[_contractOwner].amountToWithdraw = 0;\n        _UsersWithNfts[token]._owners.push(_contractOwner);\n        _UsersWithNfts[token].owners[to].percentatge = 70;\n        _UsersWithNfts[token].owners[to].amountToWithdraw = 0;\n        _UsersWithNfts[token]._owners.push(to);\n\n        _UsersWithNfts[token].hashFile = hashFile;\n        //_UsersWithNfts[token].uriFile = uriFile;\n        //_UsersWithNfts[token].hashMetaFile = hashMetaInfo;\n        //_UsersWithNfts[token].uriMetaFile = uriMetaInfo;\n        //_UsersWithNfts[token].uriLicense = uriLicense;\n        //_UsersWithNfts[token].copyright = copyright;\n        _UsersWithNfts[token].price = price;\n        _UsersWithNfts[token].state = nNftState.Active;\n        _UsersWithNfts[token].exist = true;\n\n        _counter++;\n\n        emit Minted(to, token);\n\n        return true;\n    }\n\n    function getStateName(nNftState state)\n        internal\n        pure\n        returns (string memory)\n    {\n        if (state == nNftState.Active) return \"Active\";\n        if (state == nNftState.Inactive) return \"Inactive\";\n        return \"\";\n    }\n\n    // returns (nNft memory)\n    function getContentByToken(string memory token)\n        public\n        view\n        checkIfPaused\n        returns (\n            //string memory uriFile,\n            string memory hashFile,\n            //string memory uriMetaFile,\n            //string memory hashMetaFile,\n            //string memory uriLicense,\n            //string memory copyright,\n            string memory uri,\n            uint256 price,\n            string memory state\n        )\n    {\n        require(bytes(token).length != 0, \"token is mandatory\");\n        require(_UsersWithNfts[token].exist, \"token doesn't exist\");\n        nNft storage nft = _UsersWithNfts[token];\n        string memory sts = getStateName(_UsersWithNfts[token].state);\n        return (\n            //nft.uriFile,\n            nft.hashFile,\n            //nft.uriMetaFile,\n            //nft.hashMetaFile,\n            //nft.uriLicense,\n            //nft.copyright,\n            concatenate(urlBase, token),\n            nft.price,\n            sts\n        );\n    }\n\n    struct Ownership {\n        address owner;\n        uint256 percentatge;\n    }\n\n    function getOnwersByToken(string memory token)\n        public\n        view\n        checkIfPaused\n        returns (Ownership[] memory)\n    {\n        require(bytes(token).length != 0, \"token is mandatory\");\n        require(_UsersWithNfts[token].exist, \"token doesn't exist\");\n        uint256 total = _UsersWithNfts[token]._owners.length;\n        uint256 subtotal = 0;\n        for (uint256 i = 0; i < total; i++) {\n            address aux = _UsersWithNfts[token]._owners[i];\n            if (_UsersWithNfts[token].owners[aux].percentatge > 0) {\n                subtotal++;\n            }\n        }\n        Ownership[] memory ownees = new Ownership[](subtotal);\n        uint256 j = 0;\n        for (uint256 i = 0; i < total; i++) {\n            address aux = _UsersWithNfts[token]._owners[i];\n            nNftOwner storage ow = _UsersWithNfts[token].owners[aux];\n            if (ow.percentatge > 0) {\n                ownees[j].owner = aux;\n                ownees[j].percentatge = ow.percentatge;\n                j++;\n            }\n        }\n        return (ownees);\n    }\n\n    struct Withdrawship {\n        address owner;\n        uint256 amount;\n        uint256 percentatge;\n    }\n\n    function getPendingWithdrawsByToken(string memory token)\n        public\n        view\n        isOwner\n        returns (Withdrawship[] memory)\n    {\n        require(bytes(token).length != 0, \"token is mandatory\");\n        require(_UsersWithNfts[token].exist, \"token doesn't exist\");\n\n        uint256 total = _UsersWithNfts[token]._owners.length;\n        Withdrawship[] memory ownees = new Withdrawship[](total);\n\n        for (uint256 i = 0; i < total; i++) {\n            address aux = _UsersWithNfts[token]._owners[i];\n            nNftOwner storage ow = _UsersWithNfts[token].owners[aux];\n            ownees[i].owner = aux;\n            ownees[i].percentatge = ow.percentatge;\n            ownees[i].amount = ow.amountToWithdraw;\n        }\n        return (ownees);\n    }\n\n    function getWithdrawsForMeByToken(string memory token)\n        public\n        view\n        checkIfPaused\n        returns (uint256)\n    {\n        require(bytes(token).length != 0, \"token is mandatory\");\n        require(_UsersWithNfts[token].exist, \"token doesn't exist\");\n        //require(\n        //    _UsersWithNfts[token].owners[msg.sender].percentatge != 0,\n        //    \"address doesn't own the token\"\n        //);\n        return _UsersWithNfts[token].owners[msg.sender].amountToWithdraw;\n    }\n\n    function getTotalMinted() public view isOwner returns (uint256) {\n        return _counter;\n    }\n\n    function transferOwnership(\n        address from,\n        string memory token,\n        address to,\n        uint256 percentatge\n    ) public isOwner returns (bool) {\n        require(to != address(0), \"No null to address is allowed\");\n        require(from != address(0), \"No null from address is allowed\");\n        require(\n            from != to,\n            \"source address must be differnt to destination address\"\n        );\n        require(bytes(token).length != 0, \"token is mandatory\");\n        require(\n            percentatge <= 100,\n            \"percentatge isn't correct, must be between 1 and 100\"\n        );\n        require(\n            percentatge > 0,\n            \"percentatge isn't correct, must be between 1 and 100\"\n        );\n        require(_UsersWithNfts[token].exist, \"token doesn't exist\");\n        require(\n            _UsersWithNfts[token].owners[from].percentatge != 0,\n            \"from address must be among the owners\"\n        );\n        //require(\n        //    _UsersWithNfts[token].owners[to].percentatge != 0,\n        //    \"to address must be among the owners\"\n        //);\n        require(\n            _UsersWithNfts[token].owners[from].percentatge >= percentatge,\n            //_UsersWithNfts[token].owners[from].value >= percentatge,\n            \"from address has no enought ownership\"\n        );\n        require(\n            _UsersWithNfts[token].owners[to].percentatge + percentatge <= 100,\n            //_UsersWithNfts[token].owners[to].value.percentatge + percentatge <= 100,\n            \"destination address would have more than 100% ownership, impossible!\"\n        );\n        /*require(\n            _UsersWithNfts[token].state  == nNftState.Inactive ,\n            \"token state doesn't allow it\"\n        );*/\n\n        _UsersWithNfts[token].owners[from].percentatge -= percentatge;\n        _UsersWithNfts[token].owners[to].percentatge += percentatge;\n\n        uint256 total = _UsersWithNfts[token]._owners.length;\n        bool found = false;\n        for (uint256 i = 0; i < total && !found; i++) {\n            if (_UsersWithNfts[token]._owners[i] == to) found = true;\n        }\n        if (!found) _UsersWithNfts[token]._owners.push(to);\n\n        emit Transfered(\n            token,\n            percentatge,\n            from,\n            _UsersWithNfts[token].owners[from].percentatge,\n            to,\n            _UsersWithNfts[token].owners[to].percentatge\n        );\n        return true;\n    }\n\n    function receiveFunds() public payable {\n        emit FoundsReceived(msg.sender, msg.value);\n    }\n\n    function getBalance() public view isOwner returns (uint256) {\n        return address(this).balance;\n    }\n\n    function buy(\n        string memory token,\n        //string memory newLicence,\n        //string memory newCopyright,\n        //address from,\n        uint256 newPrice\n    ) public payable checkIfPaused {\n        require(bytes(token).length != 0, \"token is mandatory\");\n        require(_UsersWithNfts[token].exist, \"token doesn't exist\");\n        //require(bytes(newCopyright).length != 0, \"new copyright is mandatory\");\n        //require(bytes(newLicence).length != 0, \"new license is mandatory\");\n        require(\n            _UsersWithNfts[token].state == nNftState.Active,\n            \"token state doesn't allow it\"\n        );\n        require(\n            _UsersWithNfts[token].owners[msg.sender].percentatge == 0,\n            \"you're already an owner\"\n        );\n\n        address buyer = msg.sender; // payable(msg.sender);\n\n        //buyer transfer money to contract\n        uint256 deposit = msg.value;\n\n        if (deposit < _UsersWithNfts[token].price) {\n            revert NotEnoughMoney(\"buyer has not enought money\");\n        }\n\n        uint256 totalPayed = 0;\n\n        uint256 total = _UsersWithNfts[token]._owners.length;\n\n        for (uint256 i = 0; i < total; i++) {\n            address aux = _UsersWithNfts[token]._owners[i];\n            uint256 percent = _UsersWithNfts[token].owners[aux].percentatge;\n            if (percent > 0) {\n                uint256 amountToWithdraw = (deposit / 100) * percent;\n                _UsersWithNfts[token]\n                    .owners[aux]\n                    .amountToWithdraw = amountToWithdraw;\n                _UsersWithNfts[token].owners[aux].percentatge = 0;\n                totalPayed += amountToWithdraw;\n            }\n        }\n\n        // in case % has decimals and remains some budget, then send it to the contract\n        uint256 remain = deposit - totalPayed;\n\n        if (remain > 0) {\n            (bool sent, ) = payable(_contractOwner).call{value: remain}(\"\");\n            if (!sent) {\n                emit WithdrawnRemainFail(_contractOwner, remain);\n            }\n        }\n\n        _UsersWithNfts[token].owners[buyer].percentatge = 100;\n        _UsersWithNfts[token].owners[buyer].amountToWithdraw = 0;\n        _UsersWithNfts[token]._owners.push(buyer);\n        //_UsersWithNfts[token].uriLicense = newLicence;\n        //_UsersWithNfts[token].copyright = newCopyright;\n        _UsersWithNfts[token].price = newPrice;\n\n        emit Sold(buyer, token, deposit);\n    }\n\n    function withdraw(string memory token) public checkIfPaused {\n        require(bytes(token).length != 0, \"token is mandatory\");\n        require(_UsersWithNfts[token].exist, \"token doesn't exist\");\n        require(\n            _UsersWithNfts[token].state == nNftState.Active,\n            \"token state doesn't allow it\"\n        );\n\n        address owner = msg.sender;\n\n        if (_UsersWithNfts[token].owners[owner].amountToWithdraw == 0) {\n            revert NoMoneyToWithdraw();\n        }\n        uint256 amount = _UsersWithNfts[token].owners[owner].amountToWithdraw;\n        //to avoid re-entrancy calls, let's setup to zero current amount before trasnferring the ether\n        _UsersWithNfts[token].owners[owner].amountToWithdraw = 0;\n\n        //payable(owner).transfer(amount);\n        (bool sent, ) = payable(owner).call{value: amount}(\"\");\n        if (sent) {\n            emit Withdrawn(owner, amount);\n        } else {\n            //if transaction fails, then restore the original amount\n            _UsersWithNfts[token].owners[owner].amountToWithdraw = amount; //maybe isn't need it because revert will cancel any state changes...\n            revert WithdrawCancelled(owner, amount);\n        }\n    }\n\n    function disableByToken(string memory token) public isOwner {\n        require(_UsersWithNfts[token].exist, \"token doesn't exist\");\n        _UsersWithNfts[token].state = nNftState.Inactive;\n        emit DisabledToken(token);\n    }\n\n    function enableByToken(string memory token) public isOwner {\n        require(_UsersWithNfts[token].exist, \"token doesn't exist\");\n        _UsersWithNfts[token].state = nNftState.Active;\n        emit EnabledToken(token);\n    }\n\n    function withdrawOwner(uint256 amount) public isOwner {\n        (bool sent, ) = payable(_contractOwner).call{value: amount}(\"\");\n        if (sent) {\n            emit Withdrawn(_contractOwner, amount);\n        } else {\n            //if transaction fails, then restore the original amount\n            revert WithdrawCancelled(_contractOwner, amount);\n        }\n    }\n\n    function setUrlBase(string memory uri) public isOwner {\n        urlBase = uri;\n    }\n\n    function concatenate(string memory a, string memory b)\n        private\n        pure\n        returns (string memory)\n    {\n        return string(abi.encodePacked(a, \"/\", b));\n    }\n}\n",
  "sourcePath": "/Users/joanmiquelespadasabat/Projects/tron/PureNFT/contracts/LightNFT.sol",
  "compiler": {
    "name": "solc",
    "version": "0.8.11+commit.d7f03943.Emscripten.clang"
  },
  "schemaVersion": "3.4.11",
  "updatedAt": "2023-01-20T11:26:22.547Z",
  "networkType": "ethereum",
  "devdoc": {
    "kind": "dev",
    "methods": {},
    "version": 1
  },
  "userdoc": {
    "errors": {
      "NoMoneyToWithdraw()": [
        {
          "notice": "No funds to be withdrawn"
        }
      ],
      "NoOwner()": [
        {
          "notice": "Not an owner of a token"
        }
      ],
      "NotEnoughMoney(string)": [
        {
          "notice": "the funds send don't cover the price"
        }
      ],
      "WithdrawCancelled(address,uint256)": [
        {
          "notice": "Error getting funds"
        }
      ]
    },
    "kind": "user",
    "methods": {},
    "version": 1
  }
}